:020000040000FA
:108000001016002021860000298600000999000032
:108010002D8600002F860000318600000000000041
:108020008F9E939B00999697F40000003585000081
:108030003586000000000000BD8500000D860000B0
:108040003B8600003B8600003B8600003B8600002C
:108050003B8600003B8600003B8600003B8600001C
:108060003B8600003B8600003B8600003B8600000C
:108070003B8600003B8600003B8600003B860000FC
:108080003B8600003B86000089A000003B86000084
:108090003B8600003B8600003B8600003B860000DC
:1080A0003B8600003B8600003B8600003B860000CC
:1080B0003B8600003B8600003B8600003B860000BC
:1080C0003B8600003B8600003B8600006DA100005F
:1080D0003B8600003B8600003B8600003B8600009C
:1080E0003B8600003B8600003B8600003B8600008C
:1080F0003B8600003B8600003B8600003B8600007C
:108100003B8600003B8600003B8600003B8600006B
:10840000FFFFFFFFFFFFFFFFFFFFFFFFFEFDFFFF7F
:1084100000F002F800F04AF80AA090E8000C82444C
:108420008344AAF10107DA4501D100F03FF8AFF229
:10843000090EBAE80F0013F0010F18BFFB1A43F042
:108440000103184770B1000090B100000A4410F811
:10845000014B14F00F0508BF10F8015B240908BF99
:1084600010F8014B6D1E05D010F8013B6D1E01F890
:10847000013BF9D1641E03D0641E01F8015BFBD1FE
:108480009142E4D370470000002300240025002619
:10849000103A28BF78C1FBD8520728BF30C148BF67
:1084A0000B6070471FB51FBD10B510BD00F05EFB1F
:1084B0001146FFF7F7FF05F05DFE00F07CFB03B40B
:1084C000FFF7F2FF03BC00F0E9FA000080F309882F
:1084D0007047EFF309807047684680F309880448C5
:1084E0000078C00714BF0220032080F3148870476F
:1084F00050220100DFF818C0EFF305831B0618BFF8
:108500006047EFF31483DB0708BF604700DF704765
:1085100009F10000DFF818C0EFF305831B0618BF50
:108520006047EFF31483DB0708BF604700DF704745
:1085300015F30000EFF30980816911F8021C39BBC3
:1085400090E80F10E047EFF3098C194B93E8060011
:10855000914218D059B10CB44FF0010381F8213089
:108560002CE9F00FC1F824C007F0AAF90CBC1A607E
:10857000D2F824C0BCE8F00F92F821308CF30988BF
:108580001BB192F82000CCF800006FF0020E70478B
:1085900010B5084A1268914209D8074C54F8214096
:1085A00090E80F10A047EFF3098C8CE80F0010BD86
:1085B00050E1FF1F088C0000088C000007F02AF82B
:1085C000114B93E8060091421BD00CB44FF000030E
:1085D00081F82130EFF3098C2CE9F00FC1F824C0A9
:1085E00007F06EF90CBC1A60D2F824C0BCE8F00F9A
:1085F0008CF3098892F821301BB192F82030CCF826
:1086000000306FF0020E704750E1FF1F07F01AFABA
:10861000D6E7000005F096FF07F014FAD0E7000057
:108620000948804709480047FEE7FEE7FEE7FEE706
:10863000FEE7FEE7FEE7FEE7FEE7FEE70448054942
:10864000054A064B70470000E59F000011840000BA
:108650001013002010160020101400201014002009
:1086600000487047AC12002010B5002000F01CFA42
:10867000FFF71AFFBDE81040012000F00FBA40EAF2
:10868000010310B59B070FD1042A0DD310C808C9E8
:10869000121F9C42F8D020BA19BA884201D9012091
:1086A00010BD4FF0FF3010BD1AB1D30703D0521CDC
:1086B00007E0002010BD10F8013B11F8014B1B1B17
:1086C00007D110F8013B11F8014B1B1B01D1921E81
:1086D000F1D1184610BD10B5431C02E010F8011B83
:1086E00071B18107FAD14FF0013202C88C1A8C4364
:1086F00014EAC211F9D0C01A0A0603D0C01E10BD78
:10870000C01A10BD0A0401D0801E10BD0902FCD0A1
:10871000401E10BD40EA010370B59B072ED14FF0FB
:108720000136042A2AD308C810C99D1B9D43121F75
:1087300015EAC61517D0D8B2E1B2401A50EA056161
:1087400010D198B2A1B2401A50EA05410AD123F0E3
:108750007F4024F07F41401A50EA052102D1180ED3
:10876000A0EB146070BDA342DBD018BA21BA8842D6
:1087700001D9012070BD4FF0FF3070BD0AB9002053
:1087800070BD10F8013B11F8014B63B1A3420AD14F
:10879000521E08D010F8013B11F8014B1BB1A34247
:1087A00001D1521EEDD1181B70BD421E12F8013FBF
:1087B000002BFBD111F8013B002B02F8013BF9D152
:1087C0007047032A40F2568010F0030C00F0158029
:1087D00011F8013BBCF1020F624498BF11F801CBC4
:1087E00000F8013B38BF11F8013BA2F1040298BF29
:1087F00000F801CB38BF00F8013B11F0030300F093
:10880000B080121FC0F03680A1EB0301022BD1F81B
:1088100000C000F0118000F21E804FEA1C2351F8C6
:1088200004CF121F43EA0C6340F8043BBFF4F5AFDA
:1088300001F1010100F01EB84FEA1C4351F804CFCA
:10884000121F43EA0C4340F8043BBFF4F5AF01F1BB
:10885000020100F00FB84FEA1C6351F804CF121F59
:1088600043EA0C2340F8043BBFF4F5AF01F10301E8
:10887000AFF30080D20724BF11F8013B11F801CB00
:1088800048BF11F8012B24BF00F8013B00F801CBD1
:1088900048BF00F8012B7047431A28BF9A427FF661
:1088A00090AF032A1044114440F2498010F0030FA6
:1088B0001EBF11F8013D521E00F8013D10F0030FDC
:1088C0007FF4F6AF11F0030300F00881121FC0F02F
:1088D0003680A1EB0301022BD1F800C0C0F011805B
:1088E00000F21E804FEA0C4351F804CD121F43EAF8
:1088F0001C4340F8043DBFF4F5AF01F1020100F064
:108900001EB84FEA0C6351F804CD121F43EA1C2332
:1089100040F8043DBFF4F5AF01F1010100F00FB8DC
:108920004FEA0C2351F804CD121F43EA1C6340F8B0
:10893000043DBFF4F5AF01F10301AFF30080D207AE
:1089400024BF11F8013D11F801CD48BF11F8012CE9
:1089500024BF00F8013D00F801CD48BF00F8012C0C
:10896000704710B5203AC0F00B80B1E81850203A9B
:10897000A0E81850B1E81850A0E81850BFF4F5AFBF
:108980005FEA027C24BFB1E81850A0E8185044BF49
:1089900018C918C0BDE810405FEA827C24BF51F8B6
:1089A000043B40F8043B08BF7047D20728BF31F8AA
:1089B000023B48BF11F8012B28BF20F8023B48BFFB
:1089C00000F8012B704702F0FF0343EA032242EA5A
:1089D000024200F002B84FF000020429C0F01280F9
:1089E00010F0030C00F01B80CCF1040CBCF1020F62
:1089F00018BF00F8012BA8BF20F8022BA1EB0C0137
:108A000000F00DB85FEAC17C24BF00F8012B00F82C
:108A1000012B48BF00F8012B70474FF0000200B552
:108A2000134694469646203922BFA0E80C50A0E891
:108A30000C50B1F12001BFF4F7AF090728BFA0E83F
:108A40000C5048BF0CC05DF804EB890028BF40F80B
:108A5000042B08BF704748BF20F8022B11F0804F4D
:108A600018BF00F8012B7047427801788378C078EE
:108A700041EA022141EA034141EA006070474FEABE
:108A8000102208704A704FEA10428A704FEA106252
:108A9000CA7070477047704770470000014918203E
:108AA000ABBEFEE72600020010B500F047F8BDE8B7
:108AB000104000F03EB8431A28BF9A427FF651AFEB
:108AC000104410F0030F11441EBF11F8013D521E57
:108AD00000F8013D10F0030F7FF4F6AF103AC0F03C
:108AE0000A8010B531E91850103A20E91850BFF447
:108AF000F9AFBDE81040530724BF31E9081020E961
:108B0000081044BF51F8043D40F8043D12F0030F33
:108B100008BF7047D20728BF31F8023D48BF11F89F
:108B2000012C28BF20F8023D48BF00F8012C7047F7
:108B30007047002801D0FFF7B1BF704710B5002182
:108B400002A000F041F8012010BD00005349474148
:108B50004252543A2041626E6F726D616C207465AE
:108B6000726D696E6174696F6E0000007546FFF783
:108B700077FDAE4605006946534620F0070085465E
:108B800018B020B5FFF75AFDBDE820404FF00006B1
:108B90004FF000074FF000084FF0000B21F00701E5
:108BA000AC46ACE8C009ACE8C009ACE8C009ACE828
:108BB000C0098D46704710B50446AFF300802046CB
:108BC000BDE81040FFF77BBC70B505460C460A2097
:108BD00000E06D1C00F011F835B128780028F8D1BC
:108BE00002E0641C00F009F814B120780028F8D1E4
:108BF000BDE870400A20AFF3008008B569468DF8E3
:108C000000000320ABBE08BD0000000070B5027874
:108C100032B1012A05D000220A704FF0011070BD58
:108C200001220F480123202403700E4840F8844F8E
:108C3000402440F87C490364102404600225C56385
:108C4000C66846F01006C66004600364C563C36C62
:108C500043F00203C364044B40F213105860DBE797
:108C600050E2FF1F00F00F4000A004402DE9F0414A
:108C700002787F2A03D0BDE8F04100F019B801F86E
:108C8000012B447801F8014B861C0D464FF002176A
:108C900008E02946304600F00BF8074406EB104682
:108CA00015FA80F5641EF4D23846BDE8F081000064
:108CB0002DE9F84F0278A2F180031F2B03D800F0B2
:108CC00053F9BDE8F88F01F8012B0C4610F8017B31
:108CD00002239B49DFF86CA200259B4E4FF001094F
:108CE0004FF0FF084FF00112172F6ED2DFE807F0A8
:108CF0000C374347C7D4F16DEF5C646D6D6D6D6DDE
:108D0000686E8E9EA8BFC3000078631C00210628F1
:108D100021D006DC05281ED2DFE800F01D1D1D1D38
:108D20000C00F0280DD0FD2815D0FE2810D0FF280B
:108D300011D108E0052285491846FFF742FD0521BB
:108D400009E0112005E0402018705D70022102E06A
:108D5000052018700121217001F10210B1E702789D
:108D600012B1012A40D14FE04078794A00F0010069
:108D7000C043106048E02146FFF748FF23E07548F4
:108D800035704946C0F84490102242604364426DF9
:108D900022F0020242657048426842F080724260EE
:108DA00040F2131242602FE04278037843EA022037
:108DB0000001401EFDD127E0657025701946ABE02B
:108DC000214600F06DFB0146A6E0B5E0C778FFF74D
:108DD0004BFE624967F31F6030B1614A904206D38F
:108DE000484686F801900EE084F8008094E05D4AE1
:108DF00075700244B2FBF0F0022803D90322B0FBE5
:108E0000F2F000E001207060257085E010F8016B41
:108E10000EB94FF480760146304601F0BBF8F61DDE
:108E20002570F008010401F1011175E0007800F0EF
:108E30000301491C3175C0F38000707525701CE07A
:108E400084F800800123194610F8014B0AE010F85D
:108E5000012B12F03F0200D14022D21DD208134450
:108E600010445B1C641EF2D263F31F4154E000788F
:108E700084F80080D6E784F8008011464CE0017841
:108E800031728178427842EA012171810179C27898
:108E900042EA0120B0814DE032782146012A13D008
:108EA0000746401C10F8012B42B110F8013B9C070B
:108EB00001D5DB0600D5001D521EF6D1C01B0D707A
:108EC00000044D70801C7EE700F0D4F87BE71DE0C5
:108ED000FFE7074630782146012809D00D704D7014
:108EE000A5700320F978890706D540F4802113E0A6
:108EF000384600F041FAF5E7B9787A7842EA01217C
:108F00004FF4802202EB8141014305E031780129D1
:108F100005D084F80080514601F10110D1E60679B0
:108F2000401CFFF7A1FD66F31F600090694600201A
:108F300000F098FD2570EEE704F8018C1046C0E6BD
:108F4000010002000100050050E2FF1F8A2101001C
:108F50001018FE4300F00F4000A004400100040080
:108F6000001BB700FF356E0170B50C4601464FF08F
:108F700001100A7804F8012B11F8012B803A092A14
:108F800015D2DFE802F0051414141414141415009B
:108F900004F056FF0646FFF79EFBC5B22570601C25
:108FA0002A463146FFF70DFC05F58030801C70BD68
:108FB00001202070087830B1012804D000202070F2
:108FC0004FF0021070BD05F069FAF9E72348816B94
:108FD00041F4F0518163224A4FF4A071516121485C
:108FE0002023C0F8843050F8943F43F0200340F829
:108FF0007C3991614023C366C36F43F04003C3676C
:1090000040F20313D361C26F22F08002C267164A96
:1090100011600123C362C36B43F00103C363134BAD
:109020001961102140F8141C50F8043C43F010035F
:1090300040F8043C40F2231353600222C262C26B28
:1090400022F00202C263DA1E094B1A61C0F8B010A6
:1090500050F8BC1F41F010010160704700800440CF
:1090600000B0044000F00F4000A004400090044015
:1090700000C004402DE9F04F87B004460590002061
:10908000DFF8ECA2CDE901018D1C8AF80000039005
:109090006678A41C8046002E7ED014F8019B5FEAFF
:1090A00089717AD5B8F1000F31D0B248478909F0FB
:1090B000110001280CD16946484600F0D3FC022873
:1090C00014D17F1E03D39AF800100029F3D0FFE0DB
:1090D00069460E2000F0C6FC022805D17F1E03D38E
:1090E0009AF800100029F3D04FF000080128EED1C3
:1090F000009905F8011B0099090A05F8011B009960
:10910000090C05F8021B0099090E05F8011C5FEA1D
:10911000C9614ED5E7782046FFF7A6FC67F31F60CC
:1091200004909448241DB0F80CB05FEAC97011D0C7
:10913000904847890021484600F094FC022802D05C
:10914000012806D106E07F1E03D39AF800100029FB
:10915000F0D0BDE0874847896946484600F082FC68
:10916000022802D0012815D106E07F1E12D39AF8FA
:1091700000100029F0D00DE07E49009A09691140E5
:10918000049A914206D0BBF1010B03D39AF8001068
:109190000029DFD0774901E0BAE046E00969009A8A
:1091A0001140049A914201D040F01000012817D1DB
:1091B00039E070494F895FEAC97115D0B8F1000FE5
:1091C00031D10021484600F04DFC022802D0012890
:1091D0007ED106E07F1E7BD39AF800100029F0D0E4
:1091E00076E04FF001081EE06946484600F03AFC80
:1091F000022802D001286BD106E07F1E68D39AF8BE
:1092000000100029F0D063E0009905F8011B0099D7
:10921000090A05F8011B0099090C05F8021B0099C1
:10922000090E05F8011C002147E0B8F1000F22D01B
:109230005048478969460E2000F014FC022802D0ED
:10924000012845D106E07F1E42D39AF8001000297C
:10925000F0D03DE0009805F8010B00984FF00008B1
:10926000000A05F8010B0098000C05F8020B0098A5
:10927000000E05F8010CE7782046FFF7F5FB67F3D1
:109280001F60241D00905FEA896103D53949086198
:10929000012013E0374847896946484600F0E2FB61
:1092A000022802D0012813D106E07F1E10D39AF8BD
:1092B00000100029F0D00BE0012103910199491C15
:1092C00001919AF8001019B9761E7FF4E6AE09E014
:1092D00046B114F8011B8A0701D5C90600D5241D23
:1092E000761EF5E7012834D1B8F1000F21D02148CE
:1092F0005746468969460E2000F0B4FB022802D08A
:10930000012826D105E0761E23D339780029F1D033
:109310001FE0009905F8011B0099090A05F8011BD7
:109320000099090C05F8021B0099090E05F8011CAB
:109330000FE0039969B10F485746468900210E2076
:1093400000F090FB022804D1761E02D33978002960
:10935000F4D0DDE901121170029948700298291ABF
:10936000059807B0201A41EA0040BDE8F08F0000E0
:1093700004E0FF1F50E2FF1F2DE9F84F0025DFF842
:1093800018B1024628468A46CE1C8BF800509178C8
:109390005378D21C53EA012473D012F8019B9046F3
:1093A0005FEA89715DD55FEAC9713AD03B48478968
:1093B0000021484600F056FB022802D0012860D167
:1093C0002FE07F1E5DD39BF800100029F0D058E0FD
:1093D00024B95FEAC97001D04FF00E092F48D84672
:1093E00047896946484600F03DFB022802D0012823
:1093F00047D106E07F1E44D398F800100029F0D032
:109400003FE0009906F8011B0099090A06F8011BC4
:109410000099090C06F8021B0099090E06F8011CB8
:109420006D1C641ED4D22CE0404698F80370FFF700
:109430001BFB67F31F600090184808F10408478978
:109440006946484600F00EFB022802D0012818D1D8
:1094500006E07F1E15D39BF800100029F0D010E025
:109460006D1C641EE0D20D485F46448900210E2029
:1094700000F0F8FA022804D1641E02D339780029DA
:10948000F4D08AF800502A0A8AF801208AF80200EB
:10949000A6EB0A00BDE8F88F04E0FF1F50E2FF1FB3
:1094A0002DE9F04110F8015B0F4610F8014BC6782A
:1094B000FFF7DAFA2F4966F31F60E20708D0EB07DF
:1094C0004FF0200202D0C1F8842001E0C1F88820CA
:1094D000A20708D5AB074FF0400202D5C1F884209F
:1094E00001E0C1F88820220602D5234BEA091A6060
:1094F000002280B3214B984200D918464FF0E02358
:109500009A6100EB40000001586105201861E007F6
:1095100000D0D5B9A00706D5D1F89000C0F3C0108F
:10952000B0EB550F11D1600702D5B2EB950F0CD1FE
:10953000A00602D5B2EB551F07D120060AD5086D4B
:10954000C0F34000B0EBD51F04D01869C0F3004051
:109550000028DCD01A61D1F89000096DC0F3C0106A
:1095600042EA4000490840EAC11038700448BDE8AA
:10957000F081000000F00F400408FE43C0C62D003B
:10958000010006000748002102220170417042607C
:10959000017264224281818101220161027541755B
:1095A000FFF714BD50E2FF1F70B50546EFF31080C2
:1095B00000F0010472B6094E094B29463046F268A4
:1095C00000F010F828B9002329463046F26800F070
:1095D00007F9002C00D162B670BD00001004002015
:1095E0006B66656B2DE9F04788B016469A460C46C7
:1095F00080466A4604F03CF9324621464046049BC8
:1096000003F0FEFE050029D1DDE900472644761E61
:10961000B6FBF7F007FB106020B1B6FBF7F6761C3F
:109620007E43761EDFF84090B44213D824F07F408A
:1096300040F01061C9F80410504603F0F9FE00280C
:109640000CD1404603F0FEFE0546D8F8100000B1EC
:10965000804735B1404603F0ABFE284608B0BDE870
:10966000F0873C44E0E700000000024070B50400D1
:109670002AD01848C06CC0F303600F2826D01649C2
:1096800031F8100080020025C4E900500120A060DC
:1096900065618002A561C4E90305204603F0A4FECC
:1096A00050B10E48A0F18001C0E900514031816005
:1096B000E061204600F014F84FF0A05020624FF413
:1096C00000606062002070BD042070BD4FF4003067
:1096D000D9E700000080044050260100C4040020A7
:1096E00070B510B3C4691648402220F00101154836
:1096F000656820F00100884202D9421A402A12D837
:109700002846FFF75EF811480F4E20F001016D1C4E
:109710000F483560402220F00100A568884206D934
:10972000421A402A03D9FEF79FFF042070BD284645
:10973000FFF747F86D1C022075602060002070BDA7
:1097400035DB000041DB000010E1FF1FD5D3000036
:10975000E7D300002DE9F04389B01F4614000D4601
:1097600080460ED06A4604F083F83A4629464046C1
:10977000039B03F045FE060004D1DFF86090009DD6
:1097800025E0042009B0BDE8F08302CC4846C9F8C2
:1097900008100399042902D0082905D00BE025F010
:1097A0007F4141F0C06105E002CCC16025F07F41FE
:1097B00041F0E0614160404603F044FE0646D8F8BF
:1097C000100000B1804726B9039805443F1A002FC6
:1097D000DBD1404603F0ECFD3046D3E70000024009
:1097E0002DE9F04F89B0154699460C4683466A46E6
:1097F00004F03EF82A4621465846059B03F000FE39
:10980000002831D16A462146584604F031F8009EBE
:10981000DDF808807142C8F1000001404F42B742B4
:1098200000D14744DFF848A01BE0BC1BAC4200D984
:109830002C46059826F07F41B4FBF0F041F0807291
:10984000CAF80420020442EA092040F0FF00CAF8E6
:109850000800584603F0F6FD002805D12D1B2644CC
:109860004744002DE1D1002009B0BDE8F08F000091
:10987000000002402DE9F04F89B01D00DDE91279AA
:10988000DDF8508016460C46834612D06A4603F037
:10989000EFFF324621465846079B03F0B1FD0028F2
:1098A00008D16FF07F41DFF85CA041EA0767009CB8
:1098B00025E0042009B0BDE8F08F24F07F4040F09F
:1098C0000071CAF80410CAF808702968CAF80C10A8
:1098D000584603F0B7FD58B1B9F1000F01D0C9F8EF
:1098E0000040B8F1000FE5D00022C8F80020E1E701
:1098F0000799761A21F003010D4407990C44002EB4
:10990000DBD1D7E700000240C22203A1002002F011
:10991000F9FF00F0A9FBFEE72E2E2F2E2E2F2E2E64
:109920002F736F757263652F6461706C696E6B2F36
:10993000696E746572666163652F6D61696E2E6311
:109940000000000010B5EFF3108010F0010F72B6A8
:1099500009484CF22052C2814DF62812C281028879
:1099600022F00102028000D162B60448FFF77EFEB9
:10997000002800D0012010BD002005401004002068
:109980001CB506F017FD00281CD09E208DF80000A5
:10999000E7208DF801006946102000F0FBFA012451
:1099A00006F008FD00280DD000208DF80000694663
:1099B000082000F0EFFA01A9002006F08FFC012832
:1099C00001D104B11CBD00201CBD00F01F0201210B
:1099D00091404009800000F1E020C0F880127047FB
:1099E00000F01F02012191404009800000F1E020B9
:1099F000C0F88011704700F01F020121914040091A
:109A0000800000F1E020C0F80011704700F01F0254
:109A1000012191404009800000F1E020C0F80011D0
:109A200070470000FEB5074616460D46EFF310805E
:109A300000F0010472B60B4639460948FFF78AFE6A
:109A400050B900200121CDE90010029033462A468A
:109A500039460348FFF70EFF002C00D162B6FEBD69
:109A600010040020034A52780AB100F005B800F053
:109A7000FBB8000050E2FF1F2DE9F043DFF8DCC126
:109A80000122CCF81820764E2027C6F88870C6F838
:109A90008470CCF81800C6F88870C6F88470420844
:109AA000CCF81820C6F88870C6F88470831882082D
:109AB000CCF81820C6F88870C6F884701344C20821
:109AC000CCF81820C6F88870C6F884701A44CCF810
:109AD0001820C6F88870C6F884700022CCF81820C8
:109AE000C6F88870C6F884700122CCF81820C6F831
:109AF0008870C6F8847090467264DFF8689199F8AF
:109B00001420131E05D0C6F88870C6F88470521E43
:109B1000F9D1C6F88870DCF81C22C6F88470C6F843
:109B20008870DCF81C42C6F8847042EA4402C6F829
:109B30008870DCF81C42C6F8847042EA8402012A6C
:109B400012D0022A65D0042A63D0213305D0C6F88A
:109B50008870C6F884705B1EF9D1C6F84880CCF8CE
:109B60001880D0B2BDE8F083800726D500252B46AB
:109B70002020C6F88870DCF81C42C6F884706D0896
:109B8000234445EAC475401EF3D1C6F88870DCF85A
:109B90001C02C6F884704340D80700D0082201B1E7
:109BA0000D6099F8140028B1C6F88870C6F8847062
:109BB000401EF9D1C6F848801BE02BB1C6F888706A
:109BC000C6F884705B1EF8E7C6F848800023086872
:109BD0002021CCF81800C6F88870C6F884700344B9
:109BE0004008491EF5D1CCF81830C6F88870C6F880
:109BF000847099F8080040B10021CCF81810C6F81C
:109C00008870C6F88470401EF9D10120CCF8180085
:109C1000A7E799F8154044B1810706D52121C6F878
:109C20008870C6F88470491EF9D12BB1C6F88870C7
:109C3000C6F884705B1EF8E7C6F84880002CE4D0B4
:109C40008007E2D40020CCF818002120C6F88870E4
:109C5000C6F88470401EF9D1D7E700000010FE431B
:109C600000F00F4050E2FF1F2DE9F04FC64E8A462C
:109C700000230121B161C54D2027C5F88870C44C6F
:109C800061680A46521EFDD1C5F884700A46521E0C
:109C9000FDD1B061C5F888700A46521EFDD1C5F8E5
:109CA00084700A46521EFDD103EB000C4308B361D9
:109CB000C5F888700A46521EFDD1C5F884700A4660
:109CC000521EFDD19C448308B361C5F888700A46D2
:109CD000521EFDD1C5F884700A46521EFDD19C4427
:109CE000C308B361C5F888700A46521EFDD1C5F895
:109CF00084700A46521EFDD10CEB0302B261C5F816
:109D000088700A46521EFDD1C5F884700A46521E5C
:109D1000FDD1B261C5F888700A46521EFDD1C5F862
:109D200084700A46521EFDD10122B261C5F88870C6
:109D30000A46521EFDD1C5F884700A46521EFDD156
:109D40004FF00109C5F84490237DB3F1000C0BD00E
:109D5000C5F888700A46521EFDD1C5F884700A46BF
:109D6000521EFDD15B1EF3D1C5F888700A46521E03
:109D7000FDD1D6F81C22C5F884700B465B1EFDD1C0
:109D8000C5F888700B465B1EFDD1D6F81C32C5F8AD
:109D900084708846B8F10108FCD142EA4303C5F853
:109DA00088700A46521EFDD1D6F81C22C5F8847070
:109DB000A3460C46641EFDD143EA8203012B1AD050
:109DC000022B7DD0042B7BD01CF1210C0CD0C5F8CC
:109DD00088700846401EFDD1C5F884700846401EB4
:109DE000FDD1BCF1010CF2D14846C5F84890B061F4
:109DF000D8B2BDE8F08F800741D54FF0000C644623
:109E00002022C5F888700846401EFDD1D6F81C02F5
:109E1000C5F884708846B8F10108FCD14FEA5C0CA3
:109E200004444CEAC07C521EEBD12A46C5F8887027
:109E30000846401EFDD1D6F81C02B846C2F8847010
:109E4000491EFDD14440E00700D00823BAF1000FBD
:109E500001D0CAF800C09BF8141069B1DBF80440C7
:109E6000C2F888802046401EFDD1C2F8848020467A
:109E7000401EFDD1491EF3D1C2F8489034E0BCF138
:109E8000000F0CD0C5F888700846401EFDD1C5F8FB
:109E900084700846401EFDD1ACF1010CEFE7C5F817
:109EA0004890DAF800004FF0000C2024B061C5F8AB
:109EB00088700A46521EFDD1C5F884700A4600E03B
:109EC00027E0521EFBD184444008641EEED1C6F840
:109ED00018C03A462C46C5F888700846401EFDD189
:109EE000C4F88420491EFDD19BF8081079B10020E8
:109EF000B061DBF80420C5F888701046401EFDD123
:109F0000C5F884701046401EFDD1491EF3D10120D2
:109F10006DE79BF81580B8F1000F0ED082070CD5C5
:109F20002124C5F888700A46521EFDD1C5F88470F8
:109F30000A46521EFDD1641EF3D1BCF1000F0CD0B5
:109F4000C5F888700A46521EFDD1C5F884700A46CD
:109F5000521EFDD1ACF1010CEFE7C5F84890B8F105
:109F6000000FD4D08007D2D40020B0612122C5F8E0
:109F700088700846401EFDD1C5F884700846401E12
:109F8000FDD1521EF3D1C2E70010FE4300F00F4096
:109F900050E2FF1FF0B5124C00231A464FF0400C60
:109FA0000E4E2027656816E012B911F8013B082211
:109FB000DC0702D0C6F884C001E0C6F888C0C6F845
:109FC00088702C46641EFDD1C6F884702C46641E31
:109FD000FDD15B08521E401EE6D2F0BD00F00F40DE
:109FE00050E2FF1F1C484CF22051C1814DF6281150
:109FF000C1814FF4E971018018494FF48810486419
:10A0000017480021017017480173242242709A22D8
:10A010000270C27802F01F02C27003220271417105
:10A0200081798907FCD58179C1F381010229FAD1AF
:10A0300002714021417181798906FCD581794906F7
:10A04000FCD51A2101708179C1F381010329FAD16C
:10A0500081794906FCD57047002005400080044006
:10A060000050064000400640BFF34F8F044801688F
:10A07000044A01F4E06111430160BFF34F8FFEE732
:10A080000CED00E00400FA0538B5244D2C79E87891
:10A09000800601D424F02004E878000601D424F0DE
:10A0A0008004200614D51E4802F0CDFC00B101202A
:10A0B000D3221CA102F026FC194802F0E5FCE8714D
:10A0C000174802F0C0FC18B9E87820F08000E8706A
:10A0D000A00605D514F0060F03D0E8798DF800002E
:10A0E00038BDED791B4802F09DFC0446132805D9C4
:10A0F0002946BDE83840174802F004BD02F0BAFD19
:10A1000040B1132CECD1BDE83840132212A1114804
:10A1100002F04DBD0F4802F0B7FCE9E700B0064081
:10A12000D00400202E2E2F2E2E2F2E2E2F736F7543
:10A130007263652F6869635F68616C2F667265651D
:10A140007363616C652F6B323064782F7561727444
:10A150002E630000E00600203C4441504C696E6BC9
:10A160003A4F766572666C6F773E0A002DE9F05FB4
:10A17000384E002596F88040DFF8DCA02146200705
:10A1800054D5DFF8D8B04FF015090BF5B46E96F83A
:10A1900090000309C0F3C002C0F3800453EA020731
:10A1A00022D19F0007EB420222445F461BF8324057
:10A1B000C4F38304012C17D107EBC20CBCF8024096
:10A1C00094B9DFF8948008F1140818F80330ACF85B
:10A1D000023017F832305B0601D5882300E0C8232F
:10A1E0000BF8323040F00100EFF3108212F0010F53
:10A1F00072B6DAF808200EF8020002F10102B2FB92
:10A20000F9F009FB1020CAF8080000D162B6082056
:10A2100086F880001DB996F89400800601D50125C6
:10A2200000E0002596F880402007B0D40A4821437A
:10A230000C3004F08AFB0DB1012000E000209AF8F8
:10A24000002010438AF8000086F88040BDE8F05FE7
:10A2500002F0C2BA002007402CE1FF1F000C0020D2
:10A26000002070470348D0E90410081A0249098801
:10A27000081A704784E1FF1F9226010070B50B4D4C
:10A280000C460346D5E90C0188420BD9401A84429A
:10A2900000DD044622461846FEF793FA686B204418
:10A2A000686300E00024204670BD000084E1FF1FC9
:10A2B000002070472DE9F041194F0C460646D7E9BA
:10A2C0000401401A17490988081A002802DC0020F6
:10A2D000BDE8F081844200DD0446D7E9060200258E
:10A2E00090420FD3104B021919448A420AD30D1A17
:10A2F00098462A463146FEF764FA2E44641B4046CF
:10A30000C7F8188034B122463146FEF75AFAB869C8
:10A310002044B8613969601901443961D8E7000007
:10A3200084E1FF1F92260100F209002010B5054CC0
:10A330006068002805D10120606000F005F8002069
:10A34000606010BD84E1FF1F2DE9F047244CA06838
:10A3500000283ED0D4E90401421AE0684FF000061C
:10A3600052EA000137D021461E4FC969DFF87880D4
:10A37000DFF878901E4D7AB1A069814205D3388804
:10A380008B182844834200D3421A99F8003038F8D9
:10A390001300904200DA02461648E660007840F06A
:10A3A000800002F03DFAE1690144E1616269024422
:10A3B00062613B882B448B4200D1E5612169914267
:10A3C0000BD199F8002038F81210814205D10120F4
:10A3D000E060BDE8F087A660FBE7E660F9E7000013
:10A3E00084E1FF1F9226010096260100C7E1FF1FAE
:10A3F000F20900209026010010B50B4C206A18B11C
:10A40000A06A401CA06210BD01202062606200F0C2
:10A410000DF8002060622062D4E90C018842F2D07D
:10A42000401AFFF745FF10BD84E1FF1F10B5134C24
:10A430001348164B216B0A1A12481B780088821A9F
:10A44000114830F8130082420EDB1148007801F009
:10A45000A7FD216B08442063A06A00280CD0616A24
:10A46000002909D1401E06E00120E062606A002850
:10A4700002D0A06A401CA06210BD000084E1FF1F52
:10A48000320A00209426010096260100C7E1FF1F32
:10A490009126010010B50446400702D52046FFF77B
:10A4A000ABFF200704D52046BDE81040FFF73EBFB4
:10A4B00010BD7047002070470020704710B50C4851
:10A4C00000F042F8002812D00948FEF7CDFA0949F9
:10A4D000020A08704A70020C8A70000EC8700448A4
:10A4E00002790A7142794A7180798871012010BD20
:10A4F000BCE1FF1FF008002010B5104800241049EF
:10A5000044608460C4600461C0E90541C0E9071487
:10A5100044620C498462C0E90B414163048000F14C
:10A5200038014FF41650FEF7AAFA044808213830D3
:10A5300004714471817100F019F810BD84E1FF1FAE
:10A54000F2090020320A002070B5074D044621466A
:10A550002868FEF794FA2879A07168796071A87963
:10A560002071012070BD000048E2FF1F10B506F009
:10A5700045FC03F03DFE012010BD10B506F07CFC4B
:10A58000012010BD0120704710B50446FEF76CFA9B
:10A5900007490860A079087160794871207988714D
:10A5A0000020C871BDE81040084606F077BC0000E6
:10A5B00048E2FF1F10B5114800241149446084602F
:10A5C000C4600461C0E90541C0E9071444620D4953
:10A5D0008462C0E90B4141630480FFF7CEFF074965
:10A5E0004FF416503831FEF74AFA04480821383043
:10A5F000047144718171FFF7C7FF10BD84E1FF1F33
:10A60000F2090020320A002010B5FFF7D3FF10BD79
:10A6100070B51948007800282DD0184C0025012667
:10A62000206A50B9D4E90C01884206D11449884205
:10A6300003D02163E56225626163A06A70B1206A7C
:10A6400060B9E06A50B92662FFF7F0FE2562D4E9EE
:10A650000C01884202D0401AFFF72AFED4E901011A
:10A66000084308D1D4E90401884204D06660A6609A
:10A67000FFF76AFE656070BDC5E1FF1F84E1FF1F43
:10A68000320A002010B50B4CDFF82CC028B100DFD7
:10A690002060002006F0ACF90AE000DF2168401AD3
:10A6A000B0F5967F01D3012000E0002003F0B8FD53
:10A6B000012010BD44E2FF1F85FA00000020704712
:10A6C00000207047024910B50880FFF75BFF10BDFE
:10A6D00084E1FF1F70B50A4C2046E578FEF7C4F907
:10A6E00065F31F600749FEF7CAF906482179017131
:10A6F00061794171A1798171FFF746FF70BD00005A
:10A70000F0080020BCE1FF1F01078A0E0449114434
:10A7100011F8C02F22F002020A7001F0EFBF000012
:10A7200000200740014680784A790B7943EA0221EC
:10A73000020601D4014A115401F0E0BF40E1FF1FBD
:10A74000704700F071BA00000A49002811F8940F10
:10A7500006D040F001000870102081F874007047A6
:10A7600020F0010001F8740B087820F01000087048
:10A77000704700000020074010B50B4C0B48A28822
:10A780000078824200D902461AB9074900201439DC
:10A7900008718020216802F043F82168014421609B
:10A7A000A188081AA08010BDD8E1FF1F7226010001
:10A7B00010B5064C0020A288216801F0F1FB216849
:10A7C00001442160A188081AA08010BDD8E1FF1FB4
:10A7D000704700000949020607D5000701EB9060A9
:10A7E00010F8C01F21F0050105E001EB800010F812
:10A7F000C01F21F0090101707047000000200740D0
:10A800000949020607D5000701EB906010F8C01F48
:10A8100041F0050105E001EB800010F8C01F41F098
:10A820000901017070470000002007402DE9F04742
:10A83000684F0446A7F1080580074FF00009A5F10D
:10A84000140620D501F0C0FF3878C009FFF7C0FF1B
:10A85000F888A8803878C0F3411111B1012966D178
:10A8600057E07978DFF870810C2960D2DFE801F0D9
:10A87000060C5F135F18275F2B31384601F00AFD85
:10A880001FE0FFF779FF5EE0002005E001F0ACFF7C
:10A89000D8F8000039E0012001F03CFDC0B3F5E735
:10A8A00010F01F0F43D1B878012140F080003070C4
:10A8B00000F07F0001F072FF01F096FF43E001F02D
:10A8C000FFFB28B3DDE710F01F0F30D141481B38E4
:10A8D00012E001F06FFDD8B101F086FF3F4813E0B0
:10A8E00000F01F00012822D1707888B13879B17842
:10A8F00088421CD23A4908442860C2E701F020FE91
:10A9000030B101F071FF37480068E0B180471AE0CC
:10A910000DE010F01F000AD0012808D100F0FAF86D
:10A9200088B900F04DF970B900F0A2F858B938783C
:10A93000000603D4F88808B1002000E0802001F070
:10A9400037FFA5F80490600721D5387800061CD49D
:10A95000A888E0B1FFF72CFFA888C0B93878C0F309
:10A96000411161B101290AD110F01F0007D001285F
:10A9700005D100F065F850B900F036F838B98020FC
:10A9800001F016FFA5F8049001E001F033FF200765
:10A9900012D53878000606D5A888317908430BD03F
:10A9A000FFF7EAFE08E03078010605D500F07F00E9
:10A9B0003070002101F0F2FE600602D50020FFF7A2
:10A9C000A3FE200604D5BDE8F0478020FFF79CBE1B
:10A9D000BDE8F087E0E1FF1FF8260100F026010046
:10A9E00020E1FF1FF426010010B51249124A087930
:10A9F0001278904203D0114A1278904217D14878C9
:10AA000020B1022805D0202811D10DE0FFF756FE15
:10AA100005E0C878897841EA0020FFF751FE30B19F
:10AA200001F0E2FE012010BDFFF754FEF7E7002021
:10AA300010BD0000E0E1FF1F8E2601008F260100FF
:10AA400010B50948094A01791278914209D1407834
:10AA5000092806D100F0EEFA18B101F0C5FE012078
:10AA600010BD002010BD0000E0E1FF1F73260100B3
:10AA700070B52349234A08791278904203D0224ABC
:10AA8000127890423AD11E484978204CC278837897
:10AA90001F4D43EA022004291FD007DC79B10129A8
:10AAA0000FD002290BD0032928D111E0202906D08C
:10AAB000212919D022291AD023291FD11AE02C606C
:10AAC00010E0FFF7F9FC05E02C60FFF755FE09E008
:10AAD000FFF7F0FC0028F7D110E0FFF7C1FB0BE017
:10AAE00001F082FE012070BDFFF7E8FCF2E7FFF7FE
:10AAF000E9FD01E0FFF7C6FD0028F1D1002070BD9F
:10AB0000E0E1FF1F8E2601008F260100F0080020E3
:10AB1000D8E1FF1F2DE9F041224E23493079097811
:10AB200088423CD17078214C214D224F0C2836D2DE
:10AB3000DFE800F03506212C353535353516243162
:10AB400000F094F958B3F078012802D0032803D01C
:10AB500003E01948206000E02560FFF70DFE12E0D9
:10AB6000F078022802D0032803D00CE013482060BC
:10AB700009E0256007E000F061F909E000F034FA2F
:10AB80000BE001F031FE0120BDE8F08100F064F936
:10AB900028B12760E1E700F043FA0028F1D1002056
:10ABA000F2E70000E0E1FF1F73260100D8E1FF1F7C
:10ABB0002AE1FF1FF008002031090020720900205F
:10ABC00010B51548154A01791278914222D10146F3
:10ABD0004278C8788B788C7943EA0020CB79FE2ABA
:10ABE00044EA032109D0FF2A14D198B991B901F0A0
:10ABF0001BF978B101F0F8FD0AE058B9012909D133
:10AC000000F0E6FD30B1074905480860FFF7B4FDE4
:10AC1000012010BD002010BDE0E1FF1F84260100CF
:10AC2000F0080020D8E1FF1F074800214170C160F3
:10AC300001614161418081808161C161C180018187
:10AC40000162418170470000E8E1FF1F2DE9F047F4
:10AC5000484EB0887188494FDFF81C817D1C002464
:10AC6000884216D3B069A0B97461B48001233978E1
:10AC70007A1C184606F04CFA7080708848B17761EB
:10AC800098F80000012801D8756102E07088401C26
:10AC9000708070884FF00109B0BBF06808B1F460B3
:10ACA00032E0316981B398F8000001280DD83C707A
:10ACB000B48002237A1C0021012006F029FA70805A
:10ACC000708800B1756134611EE03D78C846202D62
:10ACD00000D3002508FA05F0084218D0681CC1B25C
:10ACE0003970B48002237A1C012006F011FA7080BA
:10ACF000708818B177617088401C7080306908FADC
:10AD000005F820EA08003061708830B902E06D1C57
:10AD1000EDB2DCE7B069002828D07088B188DFF890
:10AD20006480401A85B2164F98F8000037F810007A
:10AD3000A84200D2054614482A467169007840F0BE
:10AD4000800001F06DFD7069104928447061B08881
:10AD5000284480B2B0800988884209D298F800005F
:10AD600037F81000A84203D1C6F81890BDE8F08764
:10AD7000B461FBE7E8E1FF1F7E26010030090020F7
:10AD80007A260100C7E1FF1F74260100802601001A
:10AD9000F8B51B4C1B4D1C4E2089002710B9E561EE
:10ADA0003188E180E1880A1A1848E169007801F0E9
:10ADB000F7F80004E169000C0144E16121890144D4
:10ADC0008BB2238109D031888B4206D2114A1049B7
:10ADD000127831F81210814210D90F480178012001
:10ADE0000129009003D80021064A022003E02978B7
:10ADF0006A1C02205B1E06F043FA2781F8BD0000A2
:10AE0000E8E1FF1F7109002082260100752601007C
:10AE10007A260100C7E1FF1F7F26010010B5044616
:10AE2000000702D52046FFF711FF600704D5204632
:10AE3000BDE81040FFF7ACBF10BD00000348044957
:10AE40008078085C0349087001207047E0E1FF1F2B
:10AE500028E1FF1FF008002010B506F057F902495D
:10AE60000870012010BD0000F00800200B4910B54B
:10AE7000C8780022012804D0022804D0032806D173
:10AE800003E0074A02E0002010BD064A521C897800
:10AE9000002306F03DF9012010BD0000E0E1FF1F96
:10AEA0003009002029E1FF1F2DE9FC5F45480078AB
:10AEB00000287DD0444D042300262978B146481C43
:10AEC00028704248007800EB400293405B1E0192DC
:10AED000994202DB85F8009001263D4A0024118842
:10AEE000FF2901D2491C11803A4931F81000384934
:10AEF00000900988884200D1012439490020DFF8F8
:10AF0000D8804FF0010BDFF8D4A091F800E045E0C5
:10AF1000002276B11AF800105346FF2901D2491CCD
:10AF2000195418F8001021B11AF800308B4200D3E0
:10AF30000122019918F8007002238B4007FA03F1EF
:10AF4000009B994202DA0FB1012300E000233CB1DB
:10AF500033B1D5F810C00BFA00F141EA0C012961B8
:10AF60002049095C8F420ED01AF800708F4208D336
:10AF7000D5F810C00BFA00F747EA0C072F6185F8E7
:10AF8000009008F800103AB123B92A690BFA00F1D1
:10AF9000114329610AF80090401CC0B27045B7D334
:10AFA00014B10B49A1F800902869002808D000E0EE
:10AFB00006E06888002803D1BDE8FC5FFFF746BEC5
:10AFC000BDE8FC9FC5E1FF1FE8E1FF1FC7E1FF1FD0
:10AFD00024E1FF1F7626010027E1FF1F26E1FF1F66
:10AFE0007E26010028E1FF1F094809498078C978B9
:10AFF00010B1084A815409E0084A0020064B127833
:10B0000002E01954401CC0B29042FAD301207047AC
:10B01000E0E1FF1F27E1FF1F28E1FF1F7E2601005F
:10B02000034810B5807806F029F9012010BD000012
:10B03000E0E1FF1F38B50D490022C878012804D08F
:10B04000022804D0032806D103E0002038BD084AB6
:10B0500000E0084A521C00230093CB798C79897850
:10B0600044EA032306F00CF9012038BDE0E1FF1F9C
:10B070007109002029E1FF1F2DE9F05FEFF3108037
:10B0800010F0010F72B6584D4FF00009EC68C5F88A
:10B090000C9095F800A085F8009000D162B6E0070A
:10B0A00007D001F0E5FA06F0B5F95048006800B1A4
:10B0B0008047E00605D501F0A7FB4D48006800B1C8
:10B0C0008047A00605D501F057FB4A48006800B14B
:10B0D0008047600703D54848006800B18047DFF823
:10B0E0001C81022C08D14648016811B198F88800EB
:10B0F0008847FF2188F8881020076AD5414E424FC3
:10B10000AB46EFF3108000F0010272B65B46D3E964
:10B110000110814258D1012057E0EFF3108010F068
:10B12000010F72B639484FF01502405C01F1010180
:10B13000B1FBF2F502FB1511596000D162B60409AA
:10B14000C0F3C002C0F3800109D109EB420C8C446A
:10B1500016F83CC0CCF3830CBCF10D0F0AD0A5004F
:10B1600005EB4202551816F83510C1F38301012989
:10B1700013D01CE0186920F002001861307E20F026
:10B1800080003076307C20F0800030748BF80190A5
:10B1900039680029B5D0022014E01CB900F0010084
:10B1A0008BF8010057F8241009B10420884716F8DD
:10B1B0003500C0F383000928A3D157F824100029D3
:10B1C0009FD0082088479CE7002002B962B600287B
:10B1D000A3D0BAF1000F05D0404610F8941F21F01B
:10B1E00020010170BDE8F09F2CE1FF1F9C260100AB
:10B1F000A0260100A4260100A82601000020074087
:10B20000AC260100000C0020B0260100A011002097
:10B2100010B51F48402404701E48416841F4A02125
:10B220004160416B41F4802141632320FEF7EEFB36
:10B23000194890F80C1141F0800180F80C1190F839
:10B240000C110906FBD41549090A80F89C10134912
:10B25000090C80F8B0101149090E80F8B410FF21D4
:10B2600080F880100E49096801B104210D4A126866
:10B2700002B10222114341F0190180F8841080F8D4
:10B28000004190F80C1141F0400180F80C1110BD04
:10B2900040E1FF1F0080044000200740000C002018
:10B2A000A8260100AC26010070B500F01FF90028A7
:10B2B0002AD016480224164E0470447003203463CA
:10B2C000307014480546FDF7CFFB022808D9114914
:10B2D00020461F39FDF7D3FB29462046FDF7CFFB5B
:10B2E0000D4822460949007840F0800001F098FAA4
:10B2F0002846FDF7B9FB316B401A2946FDF7BFFB25
:10B30000044901200839087370BD0000B20900200B
:10B310000CE2FF1FA712002085260100114910B57D
:10B320000878022808D0032810D0042812D0052855
:10B3300001D10020087010BD0B48C07B282801D027
:10B34000A828F8D1BDE8104000F086BABDE810404A
:10B3500000F0AABD0548007840F0800000F0BEFD76
:10B36000F4E700000CE2FF1F801200208526010098
:10B37000204A10B5117869B301290ED01E4805295D
:10B3800000781BD007292BD000F0A8FD1B49022014
:10B390000873BDE8104000F087BD18481F38C07B17
:10B3A0002A2803D02F2805D0AA2822D1BDE8104092
:10B3B00000F030BBBDE8104000F0BCBA0121814074
:10B3C0000F480068014201D0012000E0002040F257
:10B3D000414200E009E0BDE810400AA101F092BA44
:10B3E00000201070106B1F2803D1BDE8104000F042
:10B3F000E9B810BD0CE2FF1F862601009F12002055
:10B40000D0E1FF1F2E2E2F2E2E2F2E2E2F736F7575
:10B410007263652F7573622F6D73632F757362642A
:10B420005F6D73632E63000010B5134C6068E060BD
:10B4300008B1012010BD1148FDF716FBA0B10F485F
:10B440000838007B000604D50D48007840F08000E5
:10B4500008E00A481F30FDF707FB216B884203D044
:10B460000848007800F03AFD0449012017310873BC
:10B4700000F01AFD002010BD0CE2FF1F8812002012
:10B480008526010086260100134810B5007900F0DA
:10B490008F01080605D501F00F004FF4803282407D
:10B4A00001E001228A400D48007840F080048C427F
:10B4B00010D10B48006810420CD00A48FDF7D4FAAE
:10B4C0000949884206D12046BDE810400D220549B1
:10B4D00001F0A6B910BD0000E0E1FF1F85260100C4
:10B4E000D0E1FF1F9F1200205553425370B50B4807
:10B4F000FDF7BAFA094C0225173440B1A4F11F0038
:10B50000007B000608D40648007800F0E7FC2573AD
:10B5100000F0CAFC002070BD012070BD8812002020
:10B520008626010070B51148FDF79EFA104C216B7C
:10B53000884202D82063032000E0042020700D48D8
:10B540000D49226B007840F0800001F069F907484E
:10B550001F300546FDF788FA216B401A2946FDF792
:10B560008EFA024900201731087370BD881200203E
:10B570000CE2FF1F85260100B2090020064810B525
:10B58000028807480549007800F00AFD054908636C
:10B59000BDE81040FFF7ECBE8C260100B209002088
:10B5A000862601000CE2FF1F10B50446400702D5B5
:10B5B0000020FFF7E3FF200703D5BDE81040FFF7A9
:10B5C000ADBE10BD2DE9F05F7A4E326B1F2A01D25D
:10B5D000134600E01F230020774D784902E00C5C01
:10B5E0002C54401C9842FAD3DFF8D8810127DFF8A9
:10B5F000D0A198F800001F2A40F0800B69D16E4856
:10B60000FDF732FA7049884263D1281DFDF72CFA04
:10B61000694C1F34211DFDF732FAA4F11700FDF724
:10B6200023FA04F10801FDF72AFA687B18B9A87B10
:10B6300008B1102801D9277389E0E87B4FF002098F
:10B640002A283ED022DC1A2850D00FDC0428F2D061
:10B6500006DCE8B30328EED1BDE8F05F00F0A2BB42
:10B660001228E8D1BDE8F05F00F0BAB8232845D031
:10B6700007DC1B2836D01E28DDD1BDE8F05F00F0C6
:10B68000DDB825283ED02828D5D147E09E2841D0D6
:10B690000FDC5528CFD004DC2F2853D03528CAD151
:10B6A00003E05A2826D09128C5D1BDE8F05F00F00C
:10B6B00045BCA1282AD0A3285CD0A8282ED0AA282F
:10B6C000B9D100F0ABFA002806D0287B000601E0D3
:10B6D00004E053E049D43770BDE8F09FBDE8F05F67
:10B6E00000F034BCBDE8F05F00F00EBCBDE8F05FD8
:10B6F00000F064BABDE8F05F00F02CBABDE8F05F7E
:10B7000000F012BBBDE8F05F00F0E6BABDE8F05F04
:10B71000FFF7CABDBDE8F05F00F09ABB00F07EFA0B
:10B720000028D9D0287B000605D586F80090BDE812
:10B73000F05F00F091B89AF8000000F0CFFB84F8B9
:10B740000C9004E0287C800705D400202073BDE81D
:10B75000F05F00F0A9BB00F061FA0028BCD0287BA4
:10B76000000602D437703762B6E798F8000040F060
:10B770008000E2E7584600F0B1FB5CE744465846DB
:10B7800000F0ACFB2078114C00F00F014FF480303A
:10B79000884021685546084320609AF8000000F070
:10B7A0009DFB28788740206807430620276030707B
:10B7B00092E700000CE2FF1F80120020B209002077
:10B7C000862601008526010055534243D4E1FF1F20
:10B7D000024900200870012070470000F008002096
:10B7E00010B5FFF783FE002820D0114B00208021E8
:10B7F0001870597002219970D97020241C715871E9
:10B800009871D8710B48016808200A7812B11A544F
:10B81000491C00E01C54401CC0B22428F5D3064942
:10B8200024200863BDE81040FFF77CBE10BD000077
:10B83000B20900201CE1FF1F0CE2FF1F0548C07C7D
:10B84000C107044800F11F0000D00121017300F07E
:10B850002BBB0000801200202DE9F041304D314F0C
:10B86000DFF8C480A969686A002688420AD338785C
:10B87000002440F0800000F031FB88F80C6000F0FC
:10B8800013FB08E02A492948097830F81140E86A92
:10B89000844200D30446FFF7C7FD00B90024A86A1C
:10B8A00068B374B1A96AE86922460144387840F067
:10B8B000800000F0B5FFA86A2044A862E86A001B77
:10B8C000E862D5E90410AA6A4143914203D1AE620D
:10B8D000696A08446862144808300746FDF7C4F8EE
:10B8E000001B3946FDF7CBF8002C06D0E86A00288B
:10B8F00003D10320287088F80C60BDE8F081002C8B
:10B90000DFD0E96A28690144491EB1FBF0F2686999
:10B91000824200D90246E969686A05F035FDC1E74F
:10B920000CE2FF1F852601009F12002088260100DF
:10B93000C7E1FF1F2DE9F041324EDFF8CC80002532
:10B94000B169706A884208D330483563007800F0E6
:10B95000C5FA88F80C5000F0A7FAFFF765FD20B192
:10B96000306B10B3B06A10B10FE035631DE0F16ABF
:10B9700030690144491EB1FBF0F27069824200D97E
:10B980000246F169706A05F0FFFC0020204A336B23
:10B99000B16A08E0F7690C183C5D175CBC4201D045
:10B9A000356202E0401C9842F4D3346BB06A01194E
:10B9B000B162F06A071BF762D6E9042042438A426B
:10B9C00003D1B562716A084470620F4808300546B9
:10B9D000FDF74AF8001B2946FDF751F8002C0ED060
:10B9E00017B1307805280AD1306A30B1002088F8C4
:10B9F0000C00BDE8F04100F057BA0120F7E7BDE8C0
:10BA0000F08100000CE2FF1F9F120020862601003B
:10BA1000B20900202DE9F041DFF80481414F0026F2
:10BA2000D8F81810D8F82400884208D33E48C8F83F
:10BA30003060007800F052FA3E7300F035FAFFF7FC
:10BA4000F3FC08B9C8F83060D8F83010D8F82800EE
:10BA50000844D8F81010884207D9BDE8F0414FF4E7
:10BA6000807232A1002000F04DBF0020384907E06D
:10BA7000D8F82830D8F81C400A5C0344401CE25433
:10BA8000D8F830209042F3D3D8F8280011000844A9
:10BA9000C8F82800D8F82C20A2EB0102C8F82C2006
:10BAA00022D0454692B988B129690844401EB0FBAE
:10BAB000F1F46869844200D904462246E969686A5B
:10BAC00005F07CFCAE62686A20440CE0D5E9041203
:10BAD0005143814208D1E969686A05F06FFCAE62A2
:10BAE0006969686A084468620E4808300546FCF7D0
:10BAF000BBFFD8F830402946001BFCF7C0FF002CE4
:10BB00000BD0D8F82C0018B198F80000052804D103
:10BB10003E73BDE8F04100F0C7B9BDE8F081000018
:10BB20000CE2FF1F9F120020862601002E2E2F2ED2
:10BB30002E2F2E2E2F736F757263652F7573622FE4
:10BB40006D73632F757362645F6D73632E630000A2
:10BB5000B209002070B5FFF7C9FC002826D0FFF716
:10BB600063FC002822D01248002106220170114BEC
:10BB7000427081701A7A0824D201C2700171417139
:10BB80008171C1710C481C630546FCF76DFF0828E4
:10BB900008D9094920461F39FCF771FF294620467C
:10BBA000FCF76DFFBDE87040FFF7BCBC70BD000046
:10BBB000B20900200CE2FF1FA712002070B5FFF7AA
:10BBC00095FC002822D0FFF72FFC00281ED010483B
:10BBD0000321002201700F49427004240B7ADB011B
:10BBE0008370C2700C480C630546FCF73DFF0428C7
:10BBF00008D9094920461F39FCF741FF294620464C
:10BC0000FCF73DFFBDE87040FFF78CBC70BD000045
:10BC1000B20900200CE2FF1FA71200202DE9F0411D
:10BC20002948FCF721FF284D00BA113D20F0FF0400
:10BC3000287D264E04430020C6E90940E87B2F28D2
:10BC40000AD004DC28280BD02A281CD104E0A8281C
:10BC500010D0AA2817D109E0FFF7E6FB00282FD063
:10BC6000E87DA97D41EA002044BA0CE0FFF7DCFB47
:10BC7000002825D01448001DFCF7F6FE00BA20F07D
:10BC8000FF04287E0443306944430F48F4620938B6
:10BC9000FCF7EAFE0C4F01260E3768B1A04211D026
:10BCA000287B000604D50A48007840F0800001E0B7
:10BCB0000848007800F012F93E7300F0F5F8002013
:10BCC000BDE8F0810120FBE7911200200CE2FF1F8C
:10BCD000852601008626010010B5FFF707FC002825
:10BCE0001CD0FFF7A1FB002818D00D4A0D48916920
:10BCF000491E0B0E03700B0C43700B0A8370C1704E
:10BD000011690B0E03710B0C43710B0A8371C17126
:10BD100008201063BDE81040FFF704BC10BD000010
:10BD20000CE2FF1FB209002070B5FFF7DFFB00280F
:10BD300030D0FFF779FB00282CD017480021174A94
:10BD40000170417081700821C17091690C240B0E43
:10BD500003710B0C43710B0A8371C17102210172D3
:10BD600011690B0C43720B0A8372C1720C48146385
:10BD70000546FCF779FE0C2808D9094920461F39E9
:10BD8000FCF77DFE29462046FCF779FEBDE87040B1
:10BD9000FFF7C8BB70BD0000B20900200CE2FF1F16
:10BDA000A712002010B5FFF7A1FB002835D01B48D3
:10BDB00070211B4B017000214170DC685A6832EA27
:10BDC000040406D006248470282404734173DA60C6
:10BDD00008E0DAB1134A127BE2B105228270202218
:10BDE00002734173C1700171417181710A22C27184
:10BDF000017241728172C1728173C17301744174A5
:10BE000012201863BDE81040FFF78CBB022282703D
:10BE10003A22E5E781700173E3E710BDB209002023
:10BE20000CE2FF1F9F120020054910B5002008609A
:10BE30000449FCF724FE044907200870012010BDC6
:10BE4000D4E1FF1F9F1200200CE2FF1FFFF7ECBFA1
:10BE500070B5FFF74BFB00281DD00F4820220021B2
:10BE6000027041700D4CC1770320226320700C4892
:10BE70000949007840F0800000F0D2FC09480546EE
:10BE8000FCF7F2FD216B401A2946FCF7F8FD054945
:10BE900001200839087370BDB20900200CE2FF1FB1
:10BEA00085260100A712002010B508490848FCF7B4
:10BEB000E6FD08480D220549007840F0800000F0BA
:10BEC000AFFC05490520087010BD00009F1200203E
:10BED00055534253852601000CE2FF1F10B504465E
:10BEE00000F066FC200605D504F00F014FF4803009
:10BEF000884001E00120A04002490A681043086020
:10BF000010BD0000D0E1FF1F0A4810B5817C00F190
:10BF10001F0429B101202073BDE81040FFF7C4BF02
:10BF2000C07C054900F00100486005F045FA00209A
:10BF3000F1E70000801200200CE2FF1F0249002000
:10BF40000873FFF7B1BF00009F12002010B5104822
:10BF5000FCF78AFD0E4C173478B1A4F11F00007B6A
:10BF6000000604D50B48007840F0800001E00A4844
:10BF70000078FFF7B3FF012004E0FFF755FA00282F
:10BF800005D000202073BDE81040FFF78DBF10BD25
:10BF900088120020852601008626010070470000D7
:10BFA0002DE9F05F06004FEA0670DFF8D4904FEA03
:10BFB000906409EBC40B9246BBF8025088464FF0E0
:10BFC000000713D12F48407848B160080121814013
:10BFD0002C48103002F0C5FC0020BDE8F09F19F895
:10BFE0003400C0F383000D2800D10127AA4506D2F2
:10BFF0004FF4F77224A1002000F084FC554620493C
:10C000000020A03101EB841103E00B5C08F8003044
:10C01000401CA842F9D31B48DFF868A01430825DA9
:10C02000ABF80220DAF81000660819F83410F04076
:10C0300000F00100C1F3801188420DD198F807107B
:10C0400098F8062042EA012007B160B101210D48AD
:10C05000B140103002F085FCDAF81000F040C00763
:10C0600008D0C82107E007486FF00101103002F046
:10C0700060FCF1E7882109F834102846ADE700009C
:10C08000000C00202CE1FF1F2E2E2F2E2E2F2E2EE7
:10C090002F736F757263652F6869635F68616C2FBA
:10C0A000667265657363616C652F757362645F6B3F
:10C0B000696E657469732E6300000000FFF7E4B9D0
:10C0C0002DE9FC41474BA3F11C051878A3F10804A6
:10C0D00010F01F0002D001286AD16AE042484149AD
:10C0E000DE7802783F4889781C38082EC07876D2EE
:10C0F000DFE806F075041145757508303B4820608F
:10C10000122053E0002A6AD018B1394820600A2072
:10C110004CE03848FAE70AB9012860D018B136482F
:10C12000009000200BE03548FAE7009A13782BB115
:10C13000D378967846EA03231A440092401C814241
:10C14000F3D10098017899B32060C178827842EAEF
:10C1500001202BE062B318B12948009000200BE0C9
:10C160002848FAE7009A13782BB1D378967846EAF4
:10C1700003231A440092401C8142F3D1E1E7224894
:10C180000090032901D0002008E001F05DFE0BE0E3
:10C1900000990A780AB111440091401C99788142B3
:10C1A000F6D10098017819B120600078019006E07E
:10C1B00015E001A9684600F02BF800280DD0A188F1
:10C1C0000198814208D9114980B2A0800978491E9E
:10C1D000084201D1012028710120BDE8FC81002026
:10C1E000FBE70000E0E1FF1F6F26010022270100AE
:10C1F0003527010034270100B92701003627010047
:10C20000BB270100BA270100BC27010072260100EC
:10C2100030B5164A164B154CD278164D24791B783A
:10C22000212A02D0222A1ED114E09C421BD1124A9C
:10C230001378124A12780BB9012A14D042B1104A6D
:10C24000026010460F4A128810442860092007E057
:10C250000D4AF5E79C4206D10C4828600C4800883E
:10C260000860012030BD002030BD0000E0E1FF1F6C
:10C2700073260100D8E1FF1F6F260100C7E1FF1FF1
:10C28000B92701002027010036270100FC26010004
:10C290001E27010070B51D481C4C0078A4F108044D
:10C2A00010F01F000AD0194AA4F11405184B697840
:10C2B0001279012806D0022826D109E01348163841
:10C2C00020601FE001B3A87882421DD2002015E053
:10C2D00002F08F00020605D500F00F064FF4803201
:10C2E000B24001E00122824009B900070CD1A868E0
:10C2F000104209D0E868104000D001201870000AF0
:10C3000058702360012070BD002070BDE0E1FF1F68
:10C31000F008002070B5264B024619461878498867
:10C3200010F01F00A3F11C0604D0012829D0022818
:10C3300027D111E0012924D132B1012000F06EFA99
:10C34000F08840F0020005E0002000F067FAF08875
:10C3500020F00200F08029E0187900F08F04200618
:10C3600005D504F00F004FF48035854001E001252C
:10C37000A540707828B1200703D0B068284200D0CB
:10C3800009B1002070BD2AB1204600F011FAF06812
:10C3900028430AE03069284208D12046FEF7B4F964
:10C3A0002046FFF78BFEF068A843F060012070BDC7
:10C3B000E0E1FF1F2DE9F05F5B480026017811F0F6
:10C3C0001F0F6FD1584F80781C3FB1464FF0010AC4
:10C3D0004FF4803B00287BD0544801783846C07821
:10C3E00009B901285ED008B1514C6CE0514C6AE0AB
:10C3F0006078022804D0042847D0052861D146E09F
:10C4000049486179807881423AD1787020794B49E6
:10C41000B8700020484A098802E002F80090401CE9
:10C420008842FAD30125B8460AFA05F0D8F8081070
:10C43000084202D02846FEF7CDF9D8F808100BFACA
:10C4400005F0084203D045F08000FEF7C3F96D1CEB
:10C45000102DE9D34FF00110C8E902090120C8F8F6
:10C460001090FEF76DF9E0794006B8F8060002D5A5
:10C4700040F0010001E020F00100A8F8060020E0F3
:10C48000E078A17841EA00201CE0E67819E0C6B91E
:10C49000A07800F08F05280605D505F00F010BFAEE
:10C4A00001F002E03AE00AFA05F0B96801432046DB
:10C4B000B960FEF737F92846FEF7A2F9284600F0E2
:10C4C0001DF9207804442078002891D121E0FFE76D
:10C4D0004D4687F8019001245E46B9680AFA04F0D7
:10C4E000084202D02046FEF775F9B96806FA04F052
:10C4F000084203D044F08000FEF76CF9641C102C55
:10C50000EBD34FF00110C7E9020500203D61FEF7B3
:10C5100017F9054879788078884202D00020BDE874
:10C52000F09F0120FBE70000E0E1FF1F6F26010004
:10C53000B92701003627010020E1FF1F7026010006
:10C540002DE9F84F454800273E460078BA4600F0EE
:10C550001F00B94601287ED140491C39487800287F
:10C5600076D0002000903E4802780846C0780AB98C
:10C57000012870D08B4608B13A4C65E03A4C63E034
:10C580006078022804D004280CD005285AD11BE07A
:10C5900061799BF80100814254D0E078A17841EAAA
:10C5A000002050E02D48A778E67801794FF0000987
:10C5B000B94247D18078B04244D1012000902B4845
:10C5C00010F807A0C6553DE024490879B84239D192
:10C5D000A07800F08F085FEA086005D508F00F002A
:10C5E0004FF48035854002E0012505FA08F588788A
:10C5F000B04215D1DBF8081020462943CBF80810CB
:10C60000DBF80C10A943CBF80C10FEF78BF8404672
:10C61000FEF7F6F8404600F071F849EA050911E026
:10C6200056450FD119EA050F0CD1DBF8081040462A
:10C63000A943CBF80810DBF80C10A943CBF80C1079
:10C64000FEF7C8F8207804442078002898D1009894
:10C65000BDE8F88FFFE70020FAE70000E0E1FF1FE8
:10C660006F260100B92701003627010020E1FF1FD6
:10C6700070B51D490820C1F8800101201B4D002420
:10C6800005EB800181F8C040401C1028F8D315212B
:10C690001748FCF7C2F917481749402244608460E4
:10C6A000C460047044704A8001F1A0024A60C8224C
:10C6B0000A700C7201F59072CC614A610D2185F807
:10C6C000C0104FF05531016115F8940F40F0020091
:10C6D00005F81409FF202870287228732C76BDE80D
:10C6E00070402320FDF792B904E000E000200740ED
:10C6F000A01100202CE1FF1F000C00202DE9F041CB
:10C700000546174E00064FF000084FF00101A6F154
:10C71000A00705F00F040FD501EB4400814011483C
:10C7200002F013F907EB441006EB04218031C0F846
:10C730001C804161BDE8F08168008140C94309481F
:10C7400002F0F7F80748001D415D07EB44104180F7
:10C7500006EB042141608821017080F80880E9E738
:10C76000A00C00203CE1FF1F10B5FDF74DFFBDE818
:10C770001040FFF76BBB0000034810F8841F21F046
:10C7800020010170704700000020074010B5FEF73F
:10C790008BFBBDE81040FDF73BBF0000002904D132
:10C7A000024900F07F0081F89800704700200740A0
:10C7B0000007810E0348084410F8C01F41F0020131
:10C7C0000170704700200740082202490020FFF74F
:10C7D000E7BB0000E0E1FF1F024881684FF40070F2
:10C7E00001F0B4BC50E0FF1F00221146802000F091
:10C7F00017B800000248034902780020FFF7D0BBB9
:10C8000072260100F0080020034810F8841F41F050
:10C8100020010170704700000020074070470000B1
:10C8200070B5154600F00F00022202EB8004114A99
:10C83000002302EBC400458002F1A00000EB84104D
:10C8400002E0CE5CC6545B1CAB42FAD30A496008D6
:10C850000969C140C90701D0882100E0C82102F858
:10C860003410012181400448103002F07AF8284643
:10C8700070BD0000000C00202CE1FF1F002070475D
:10C8800010B5002A06DA22F00042D21D22F007037A
:10C89000102203E0D21C22F003030C2213B19C18D7
:10C8A0008C4201D9012010BD024401448360C0E9DB
:10C8B0000021C91AD018884202D810600246F9E750
:10C8C0000020106010BD000010B5044603F03EF9D2
:10C8D000002805D04FF6FF71DFF808C0206800DFA0
:10C8E00010BD0000ADF5000010B5044603F02EF9B0
:10C8F000002803D0DFF808C0206800DF10BD00006A
:10C90000FDF400002DE9F04116460F4600281CD129
:10C91000EFF3108000F0010572B600231A461946A5
:10C92000184600F009FA040003D13146384600F0F9
:10C9300045FA05B962B6002C07D1EFF30380C006B3
:10C9400003D1BDE8F04105F03DB8BDE8F081704786
:10C9500010B524220D490E48FCF703F805F008F93C
:10C960000C4805F0FFF804F003FF0B490B4A0C4B91
:10C9700008604FF40071B0FBF1F011600949012229
:10C980001A60086009490848086010BDBC2201000F
:10C99000DCF6FF1FF1D1000040E2FF1F1CE2FF1F89
:10C9A00020E2FF1F24E2FF1FDCF4FF1F28E2FF1F2D
:10C9B00000B591B0FDF756FC402801D9402000E0B9
:10C9C00060B181B2684604F04FFA010006D06846B3
:10C9D000FDF770FC10B1002001F0E6FB04F0C4FA92
:10C9E0000146402801D9402100E059B16846FDF7D1
:10C9F00045FC38B181B2684604F098FA10B10020C5
:10CA000001F0D2FB01F0F4FB11B000BD0448417805
:10CA10008078814201D001207047002070470000DB
:10CA2000E4E0FF1F30B50546EFF3108000F001048D
:10CA300072B6284600F007F8A968081A401E002CB4
:10CA400000D162B630BDEFF3108101F0010372B680
:10CA5000D0E900128A4201D3501A02E080681044E3
:10CA6000401A002B00D162B67047EFF3108313F029
:10CA7000010F72B6C0E902214FF000010160416070
:10CA800000D162B67047000070B50446EFF3108025
:10CA900000F0010572B6D4E90001884201D00120FE
:10CAA00000E0002043220EA1FFF72CFFE168206880
:10CAB0000E5C401C2060A16888420CD302D14FF06C
:10CAC000010001E04FF000004FF0480204A1FFF721
:10CAD00019FF0020206005B962B6304670BD000025
:10CAE0002E2E2F2E2E2F2E2E2F736F757263652FE5
:10CAF0006461706C696E6B2F636972635F627566E7
:10CB00002E63000070B50446EFF3108000F00105BD
:10CB100072B66268E06881546068401C6060A16819
:10CB200088420CD302D14FF0010001E04FF0000029
:10CB30004FF0310209A1FFF7E5FE00206060D4E963
:10CB40000001884201D0012000E00020362203A12C
:10CB5000FFF7D8FE002D00D162B670BD2E2E2F2E0D
:10CB60002E2F2E2E2F736F757263652F6461706C7C
:10CB7000696E6B2F636972635F6275662E63000076
:10CB80002DE9F04114460E460746FFF75CFF84424C
:10CB900000D220460546002404E03846FFF774FF23
:10CBA0003055641CAC42F8D32846BDE8F0812DE92D
:10CBB000F04114460E460746FFF734FF844200D288
:10CBC00020460546002404E0315D3846FFF79AFF11
:10CBD000641CAC42F8D32846BDE8F0810C4810B57F
:10CBE000C0782F2240F3C0100AA1401CFFF78AFE34
:10CBF00014494FF400742246A1F11000FFF735FFED
:10CC000022461149BDE81040A1F11000FFF72DBFE9
:10CC100000B006402E2E2F2E2E2F2E2E2F736F7526
:10CC20007263652F6869635F68616C2F6672656502
:10CC30007363616C652F6B323064782F7561727429
:10CC40002E630000E0040020F006002000F018BC75
:10CC500000F016BC02488079002800D001207047FF
:10CC6000641200200248C079002800D001207047DB
:10CC7000641200200248007A002800D0012070478A
:10CC8000641200202DE9F0414B212148FBF7A3FE5F
:10CC90004B272048FBF7E8FE1F4E1E4C1C4DB042B0
:10CCA00015D16079217941EA00234B2B01D21A4634
:10CCB00001E04FF04B0201D91F4601E04FF04B0756
:10CCC00014491348FBF77DFD002085F847004B21F0
:10CCD0001048FBF780FE0F493046FBF7D0FE277166
:10CCE000380A60714122E91DE01DFBF76AFD95F8E5
:10CCF000490015F8481F41EA002204F8482F100A9D
:10CD00006070A878A070BDE8F04100F08BB800001A
:10CD100018120020001F0020646C766B10B5054CC3
:10CD20004121E01DFBF757FE002004F8480F60701A
:10CD300010BD0000001F00202DE9F0471A4F81466A
:10CD40001D4616468846F81DFBF7C5FC441CB9F184
:10CD5000000002D04146FBF73EFE002006B13080C5
:10CD600005B12870F87900281CD0444502D8F91D77
:10CD7000224604E0A4EB0800C1194246C91DB9F1DE
:10CD8000000F06D097F8490097F8483043EA002092
:10CD9000308016B14846FBF714FD15B197F84A00EC
:10CDA00028700120BDE8F087001F0020024880792C
:10CDB000002800D001207047001F00202DE9F0411D
:10CDC00088460746FBF787FC124D441C4126314636
:10CDD000E81DFBF700FE412C02D83946224602E04E
:10CDE000413CE11932462C46E81DFBF7EAFC84F889
:10CDF00048804FEA182084F8490000F00FF908B184
:10CE0000012003E000F00CF900B1022084F84A0090
:10CE1000BDE8F081001F00200149887170470000C3
:10CE2000001F002070B5002211461046FCF78AFD55
:10CE3000092221492148FBF7C4FC214C22781046E5
:10CE4000627840EA0220A278E17840EA02401D4D73
:10CE500040EA0160A8420FD16079217941EA0020BF
:10CE6000092804D26079217941EA002200E00922F0
:10CE700013491248FBF7A5FC10492846FBF7FFFDB4
:10CE80000E490920888020780146607841EA002117
:10CE9000A07841EA0041E07841EA0061A94205D169
:10CEA0006079217941EA0020092804D2BDE8704068
:10CEB000024801F06FBC70BD6E28010064120020B2
:10CEC00000FC0100646C766B02498871084601F031
:10CED00061BC0000641200200249C871084601F0DC
:10CEE00059BC00006412002002490872084601F093
:10CEF00051BC0000641200202DE9F0410F460646A7
:10CF00004FF0FF340025DFF83C8012E0705D08210F
:10CF100002F0D0F884EA006408204146002C02DACE
:10CF200081EA440400E06400401E10F0FF00F5D1E7
:10CF30006D1CBD42EADB2021204602F0BBF8C04355
:10CF4000BDE8F081B71DC1042DE9F0410E4617463A
:10CF50002021C04302F0AEF804460025DFF83C80F3
:10CF600012E0705D082102F0A5F884EA0064082050
:10CF70004146002C02DA81EA440400E06400401ECD
:10CF800010F0FF00F5D16D1CBD42EADB20212046E8
:10CF900002F090F8C043BDE8F0810000B71DC10465
:10CFA00070B514460D460646FF2A07D84FF4EE72B8
:10CFB00009A10020FFF7A6FC022070BD00F04CFC88
:10CFC00008B10E2070BD2A462146304600F0A6FD6D
:10CFD0000028F7D01C2070BD2E2E2F2E2E2F2E2E87
:10CFE0002F736F757263652F6461706C696E6B2F40
:10CFF000647261672D6E2D64726F702F6961705F4E
:10D00000666C6173685F696E74662E630000000071
:10D01000C10600F00F0000D40930704700207047AF
:10D020000120704710B500231A4600F061FA00286D
:10D0300000D0012010BD10B504F0AEFA012800D0D8
:10D04000002010BD2DE9F041144E00244FF4F845A6
:10D050003078012806D04FF49B7211A10020FFF711
:10D0600051FC09E0B078022748B14FF49E720CA140
:10D070000020FFF747FC37700220BDE8F081204612
:10D0800000F02AF810B137701E20F6E704F580642E
:10D09000AC42F4D30120B0700020EEE7C0E0FF1FE7
:10D0A0002E2E2F2E2E2F2E2E2F736F757263652F1F
:10D0B0006461706C696E6B2F647261672D6E2D6494
:10D0C000726F702F6961705F666C6173685F696E03
:10D0D00074662E630000000070B5214E044630785F
:10D0E000012805D0FE221FA10020FFF70BFC18E04D
:10D0F0004FF48060B4FBF0F100FB1141022511B147
:10D100004FF4837208E0F17869B1D6E90212114454
:10D11000A14208D040F20D1212A10020FFF7F2FB4D
:10D120003570022070BD4FF4FE32B4F5004F01D3CC
:10D13000944211D30121F170C6E90240204600F06B
:10D14000C5FF222803D00028ECD0357070BD2046E2
:10D1500000F082FB0028F9D035701D2070BD000062
:10D16000C0E0FF1F2E2E2F2E2E2F2E2E2F736F7509
:10D170007263652F6461706C696E6B2F6472616796
:10D180002D6E2D64726F702F6961705F666C6173B4
:10D19000685F696E74662E63000000004FF4806063
:10D1A0007047000010B5242804D2064951F8200029
:10D1B000002805D1832204A10020FFF7A3FB0AA0C9
:10D1C00010BD0000B42101002E2E2F2E2E2F2E2E4A
:10D1D0002F736F757263652F6461706C696E6B2F4E
:10D1E0006572726F722E63000000000070470000CD
:10D1F0002DE9F0411E4615460C46074604F04CFD4D
:10D200002B48017F032951D0022C0CD0ECB1012C0A
:10D210004CD10168A94249D1407F98B3BDE8F041A3
:10D22000032003F045BD0068A8423FD1304604F01A
:10D230007BFA0446304604F07BFA0646384602F094
:10D2400059FE03462246314617E0384602F052FEA8
:10D2500003282BD0304604F065FA800726D43846E0
:10D2600002F048FE0746304604F05EFA04463046B7
:10D2700004F05EFA01463B4622462846BDE8F041EE
:10D2800003F0CABC24220B490948FBF76AFB03F0F0
:10D29000BFFA09488178012903D14178022900D1D8
:10D2A00081700348DFF814C0243000DFBDE8F0814E
:10D2B000DCF6FF1FBC220100E4E0FF1FFDF40000CC
:10D2C0002DE9F0411B4E04461746B07F88465502B3
:10D2D00058B92946404602F0C9FD032802D021462C
:10D2E00003F046FCB07F00280FD07068A0420CD835
:10D2F000B068A0420BD008D9F068401C00D1F4609F
:10D30000F068A04200D20446F460BDE8F081B06944
:10D310002A461044B061E019B060F07F20B1BDE84A
:10D32000F041002003F0C4BC41462046BDE8F04176
:10D3300003F0C6BBDCF6FF1FF0B518A185B0096885
:10D3400004910278002104AB5C5C944224D0491C17
:10D350000329F9D312A1002291E878006F46815C7D
:10D360008DE87800A1F1610CBCF1190F14D92029C6
:10D3700001D2052910D14FF0000C17F80CE08E45B2
:10D380000AD00CF1010CBCF1100FF6D3521C0B2A81
:10D39000E5D3012005B0F0BD0020FBE7E50020004B
:10D3A000222A2B2C2E2F3A3B3C3D3E3F5B5C5D7C82
:10D3B00070B50446204600F017F8054605B170BD6B
:10D3C000034902480968884700BFF8E704F00140B4
:10D3D00014E1FF1F016841F470010160BFF36F8F1A
:10D3E000BFF34F8F7047704730B1C06910B100680C
:10D3F000022803D06D20704704207047002070473A
:10D4000010B530B15B1E194201D11A4203D065201C
:10D4100010BD042010BD03688B4204D8406811443D
:10D420001844884201D2662010BD002010BD0000C3
:10D430000349884201D06B207047002070470000EC
:10D440006B66656B10B50C4C70212170FFF7CCFF3B
:10D45000002807D1094920460968884720788106B5
:10D4600001D5672010BDC10601D5682010BDC007D9
:10D47000FCD0692010BD00000000024010E1FF1F39
:10D4800070B50D4D00202C7874B100212970A97859
:10D4900009B100F0F3FA022C05D06978032902D013
:10D4A000002800D1212070BD40F2331203A10020DA
:10D4B000FFF728FA022070BD94E0FF1F2E2E2F2EBA
:10D4C0002E2F2E2E2F736F757263652F6461706C13
:10D4D000696E6B2F647261672D6E2D64726F702F91
:10D4E000666C6173685F6465636F6465722E630068
:10D4F0003EB51D460446302901D3012000E000203E
:10D50000402211A1FFF7FEF90C2204F12001684628
:10D51000FBF757F91949019888420BD1184900982F
:10D52000884201D102203EBD1549FC39884208D10C
:10D5300001203EBD204604F009F800B90DB10320DA
:10D540003EBD00203EBD00002E2E2F2E2E2F2E2E53
:10D550002F736F757263652F6461706C696E6B2FCA
:10D56000647261672D6E2D64726F702F666C6173CB
:10D57000685F6465636F6465722E630000999697B7
:10D580008F9E939B2DE9FF5F4FF00004DDF83890EC
:10D590005FEA030893460746254614D05FEA090070
:10D5A00011D00020C8F800000646C9F80000FFF7B7
:10D5B00035FDDFF88CA090B14FF40040022F04D06D
:10D5C000032F0AD012E0652234E0BBF1000F04D033
:10D5D0000199814201D0182409E0064612E0FFF7C4
:10D5E0001FFD18B1012F06D0032F0ED01924FFF70D
:10D5F00039FB78B110E0BBF1000F03D0019808B1FE
:10D600001724F4E7DAF80050F1E70E4886680E4870
:10D610000568ECE7012F04D02CB1204604B0BDE82A
:10D62000F09F1924F9E725B1C8F80060C9F8005047
:10D63000F3E79D2205A10020FFF764F90220EDE742
:10D64000B822010064E1FF1F842201002E2E2F2E3C
:10D650002E2F2E2E2F736F757263652F6461706C81
:10D66000696E6B2F647261672D6E2D64726F702FFF
:10D67000666C6173685F6465636F6465722E6300D6
:10D6800010B50C4C207830B1AC220BA10020FFF774
:10D6900039F9022010BDFF2230211448FBF793F91D
:10D6A00001202070002060706060A060E060A070C9
:10D6B000E07010BD94E0FF1F2E2E2F2E2E2F2E2E49
:10D6C0002F736F757263652F6461706C696E6B2F59
:10D6D000647261672D6E2D64726F702F666C61735A
:10D6E000685F6465636F6465722E630060ECFF1FA2
:10D6F0002DE9FE4F484F05468946387814460128E3
:10D7000007D0C12245A10020FFF7FCF80220BDE8A8
:10D71000FE8FF8784FF0010A18B9BD60FD6087F8F8
:10D7200003A0B8784FF00308002852D1F86885426A
:10D7300001D1012100E000212044F86031B3786874
:10D74000C0F13006A64200D9164641493246084487
:10D750004946FBF736F87868A41B3044B144354499
:10D76000786030282BD302D14FF0010001E04FF058
:10D7700000004FF0E30229A1FFF7C4F8D7E9011236
:10D7800001233348FFF7B4FE787001E087F8018089
:10D7900001A8009002AB01227878B968FFF7F2FE89
:10D7A000E8B9B878FC2280F001001CA1FFF7AAF8C4
:10D7B000019800F007F990B987F802A001E0B87865
:10D7C00080B1D7E90120224900F06EF838B9B87865
:10D7D00040B122464946284600F066F810B187F865
:10D7E000008094E77878012804D0022805D0032827
:10D7F0000FD105E04FF4F84004E04FF4FE3001E0B3
:10D800001448C0682919814203D3022038701020BF
:10D810007DE700207BE7000094E0FF1F2E2E2F2ED7
:10D820002E2F2E2E2F736F757263652F6461706CAF
:10D83000696E6B2F647261672D6E2D64726F702F2D
:10D84000666C6173685F6465636F6465722E630004
:10D8500060ECFF1F64E1FF1F10B5EFF3108101F0D2
:10D86000010472B6FBF7A0FE002C00D162B610BD19
:10D8700070B50E460500144613D020211046FBF764
:10D88000CCF82660E8686060D5E90101B0FBF1F0F2
:10D89000A0600420E06020616061A061E061002080
:10D8A00070BD042070BD00002DE9F05F364E0446C7
:10D8B0000025707817468846012805D07B2233A1C1
:10D8C0000020FFF71FF80BE070694FF0020A844256
:10D8D00009D283222DA10020FFF714F886F801A0B9
:10D8E0000220BDE8F09FF0784FF0010B48B92046C8
:10D8F00002F0BCF9050002D086F801A041E086F8EC
:10D9000003B0B1464E46D6E901028118A14213D8B0
:10D91000B1698B682A499847050002D089F801A0AF
:10D920002FE0FF222648B168FBF74DF886F802B0D9
:10D93000D6E90101084470600FB3D6E90301084439
:10D94000A04204D8204602F091F90500E6D17068A3
:10D95000B168B146201A0E1AB74200D23E461849A5
:10D96000324608444146FAF72CFF36B1002089F8C8
:10D9700002003444B044BF1BC4E70120F7E7C9F8F4
:10D9800014402846ADE70000A4E0FF1F2E2E2F2EE6
:10D990002E2F2E2E2F736F757263652F6461706C3E
:10D9A000696E6B2F647261672D6E2D64726F702FBC
:10D9B000666C6173685F6D616E616765722E63008E
:10D9C00090ECFF1F70B51E4D0446687808B14722E1
:10D9D00024E014B3606800B3A068F0B1E068E0B17F
:10D9E0002069D0B16069C0B1A069B0B1FF224FF425
:10D9F00080611448FAF7E7FF0126AE700020E87056
:10DA00006860A860E8602861C5E90504206880476F
:10DA1000040008D1287838B110E04D220AA1002076
:10DA2000FEF770FF022070BDA869006980470400FE
:10DA300004D0A86940688047204670BD6E70FBE73F
:10DA4000A4E0FF1F90ECFF1F2E2E2F2E2E2F2E2E28
:10DA50002F736F757263652F6461706C696E6B2FC5
:10DA6000647261672D6E2D64726F702F666C6173C6
:10DA7000685F6D616E616765722E630070B5184CEA
:10DA80000025607810B1012807D00FE0CB2215A146
:10DA90000020FEF737FF022070BDA07830B9A069E2
:10DAA0001D498368D4E9010298470546A06940688A
:10DAB00080470646FF224FF480611748FAF783FF3C
:10DAC0000120A0700021E1706160A160E16021612E
:10DAD000616161700EB1304670BD284670BD0000B6
:10DAE000A4E0FF1F2E2E2F2E2E2F2E2E2F736F759C
:10DAF0007263652F6461706C696E6B2F647261670D
:10DB00002D6E2D64726F702F666C6173685F6D612E
:10DB10006E616765722E630090ECFF1F10B5EFF326
:10DB2000108303F0010472B6FBF77CFF002C00D1D8
:10DB300062B610BD8021017001780906FCD57047DE
:10DB400070470000034601220149002018470000E9
:10DB50000CF7FF1F0248006DC0F340007047000043
:10DB600000F00F40144808B5016841F00801016059
:10DB70001248816B41F4A0518163114B81151961E9
:10DB80001048102240F8C02F4261826050F86C2C7F
:10DB900022F0020240F86C2C0B4A5160996140213E
:10DBA0008160416941F04001416108480090401E98
:10DBB0000090FCD108BD000014ED00E0008004409E
:10DBC00000C0044000F00F4000A0044040420F009D
:10DBD0000449402210B1C1F8C4207047C1F8C820E0
:10DBE0007047000000F00F40AFF30080044910229E
:10DBF00010B1C1F8C8207047C1F8C42070470000B8
:10DC000000F00F40FFF7F2BF1C4D1D4C4FF6FF76A2
:10DC100005271B4831461830DFF868C000DFA068D0
:10DC2000164905EB80104039FBF720F8A06813492E
:10DC300005EB801040224039FAF7C3FDA068DFF8F9
:10DC400048C0401CB0FBF7F107FB1100A0600C4876
:10DC5000203000DF31460D48DFF834C000DF207887
:10DC600018B100F0D1FA002020700848DFF824C075
:10DC700000DF002000F0A4FACBE70000A8E2FF1FBD
:10DC800008E0FF1F81F8000049F80000E8E3FF1FEB
:10DC9000ADF50000FDF4000010B54FF6FF71164819
:10DCA000DFF858C000DF00211548DFF858C000DF5A
:10DCB00000B30020982214A1FEF724FE104C1F4848
:10DCC000203C4022E16800EB8111002003F066FA5D
:10DCD000E0680521401CB0FBF1F201FB1200E0609E
:10DCE00004F11000DFF858C000DF0348DFF854C02B
:10DCF00000DF10BD0120DDE7E8E3FF1FADF5000008
:10DD000028E0FF1F81F800002E2E2F2E2E2F2E2E02
:10DD10002F736F757263652F6461706C696E6B2F02
:10DD2000636D7369732D6461702F757362645F75C1
:10DD30007365725F6869642E63000000A8E2FF1FCC
:10DD400049F80000FDF4000070B5104C002047F6C3
:10DD5000FC316060A060E0602061FFF7CDF860609A
:10DD60000B494FF40040FFF7C7F84FF48065A060FF
:10DD700029464FF4F840FFF7BFF8E06029464FF41A
:10DD8000FE30FFF7B9F8206170BD000030E0FF1FE2
:10DD9000FC7B01000048704744E0FF1F0021064B58
:10DDA0000A6A01209A4200D00020496A034A91423F
:10DDB00000D0002070470000939D939B0099969798
:10DDC00000B5FFF7EBFF002801D00020806A00BDFE
